:0400000080312E28F5
:100008007E1480312000931E152896019701043034
:1000180026001802031C1328180823009A00200041
:1000280093122700161D212820002308031D1F28CE
:10003800013023009A00270016112000911E2C2859
:10004800A201A20A230019082000A1008031EE2095
:100058007E100900803130280830B700F030840065
:10006800223085000130FE01FF00843125248031D3
:1000780020308400003085000E30FE00FF018431FE
:10008800252480317E10200049282100171464009F
:100098005930210097008B010B1320009E1322007A
:1000A8009A13FF308E008D0140308C0021008C01A6
:1000B8000F308D0080308E0020009E0122009113A9
:1000C80021009D019E012200970123008C018D01D2
:1000D800F8302100950024008D0123009C019B012C
:1000E8001E121E159F111E129D179E162100911695
:1000F800270016118B150430950094010B1221006E
:10010800151323001D160830210095000430260021
:100118009A00210093122000931298013F3098050D
:10012800CF3098051811181499010B178B17123036
:10013800B3008430B400B520803122000C158C1433
:100148000C100D168D1601302000A300AD282100DB
:100158009312640020002308031DAB282100931686
:10016800AD28B501B6013408AF003308AE00D82079
:1001780080312F083602031DC3282E0835020318C4
:1001880008003308350784003408363D8500000828
:1001980023009A00D52080312000B50A0319B60A39
:1001A800B7289E180800D5282F08B2002E08B100DD
:1001B800310884003208850012000319E728B10AC3
:1001C8000319B20ADC282E083102AE002F08323B90
:1001D800AF000800220803190800A2015F292200C5
:1001E8008E148E160C12080022000E140C1708002C
:1001F80022000E15080022008E15080022008E101D
:100208008E160C16080022000E108E120C13080011
:1002180022000E11080022008E110800932A503087
:10022800622A0130F5008430F6006D218031260005
:1002380018088C218031260019088C299729FD017E
:10024800200037087D020318080097218031FD0A35
:10025800242922000E158E112830890B31292200FD
:100268008E154E30FC00EB30890B3829FC0B3829F1
:100278000000640008000130A3000800A301080082
:1002880022000E16080022000E120800B70A0D2BD5
:10029800B7014A29E430F5008330F6006D2180313A
:1002A80020000D0C01398C2180310F30F50084308D
:1002B800F6006D2108002108D43E031C08008400C4
:1002C8004E3004020318080083310435483E82008A
:1002D8000800F701F8017608F1007508F0004C22D3
:1002E800803171087802031D7B2970087702031892
:1002F80008007508770784007608783D85000008AF
:1003080023009A0049228031F70A0319F80A6F2955
:10031800F900F6002430A92180312430F50000309E
:10032800F6006D21080022000E118E112830890B6D
:100338009B2922008E154E30F000EB30890BA22944
:10034800F00BA229000064000800F700E830F00074
:100358000330F1007608F200F301102280317008B2
:10036800F6007708860064308701F0007608E021FF
:100378008031303E81006430F0007608F821803109
:10038800F600770A86000A308701F0007608E02137
:100398008031303E81000A30F0007608F821F600FE
:1003A8007708023E860087017608303E810077088C
:1003B800033E860081010800F100F301700803196B
:1003C800F629F201F20AF01BEB29F035E629F3359C
:1003D80070087102031CF3297008F1027314F036D7
:1003E800F20BEB2973080800F2000830F300F4015F
:1003F8007208F1000730F136890BFF297435710452
:10040800F400F23570087402031C0C2A7008F40218
:10041800F30BFC2974080800F501F31F1A2AF209E6
:10042800F309F20A0319F30AF501F50AF11F212A63
:10043800F009F109F00A0319F10A700871040319A7
:100448003C2AF401F40AF11B2C2AF035F10D262A76
:1004580071087302031D322A70087202031C382ABD
:100468007008F2027108F33BF136F00CF40B2C2AF9
:1004780075080319442AF209F309F20A0319F30A61
:100488007308F1007208F00008009E180800492A55
:100498007108F4007008F30073088400740885007C
:1004A800120003195B2AF30A0319F40A502A700888
:1004B8007302F0007108743BF1000800F700220095
:1004C8000E15932280310C118C100C100E11770828
:1004D800F800F901F835F90DFA01FB0179087B02FA
:1004E800031D782A78087A020318922A22008E11AE
:1004F8001A30F600F830890B7F2AF60B7F2A003273
:1005080022008E1564003430F600F230890B8A2AF6
:10051800F60B8A2AFA0A0319FB0A722A0D2B220003
:100528000E150C118C100C10F401F50120008D1C17
:10053800BC2A22008E118530890BA02A00002200D7
:100548008E154E30F200EB30890BA82AF20BA82A40
:1005580000006400F40A0319F50A7508803AF200ED
:1005680080307202031DBA2AB4307402031C9A2A1E
:1005780022000E11F401F50122008E118530890B3D
:10058800C32A000022008E1564004E30F200EB30C2
:10059800890BCC2AF20BCC2A0000F40A0319F50ABD
:1005A8007508803AF20080307202031DDD2A0A3095
:1005B8007402031CC02A22000E15F401F501200064
:1005C8008D1C0C2B22008E110330F2009830890B01
:1005D800EB2AF20BEB2A22008E150230F30086304C
:1005E800F2009930890BF62AF20BF62AF30BF62A59
:1005F80000006400F40A0319F50A7508803AF2004D
:1006080080307202031D0A2BFA307402031CE32A9D
:100618000D2B192BF1012B2B0330172B0230172B25
:100628000630172B0730F1002B2B20003708013A32
:1006380003190E2B033A0319102B063A0319122B30
:100648000C3A0319142B183A0319162B0E2B7108A0
:10065800F000F036F036701C342B22000C15362BC7
:1006680022000C117108F000F036701C3E2B22009D
:100678008C14402B22008C10711C452B22000C146A
:10068800080022000C1008008131422981316C29B0
:1006980081313F2981316C298131122981316C29BD
:1006A80081316C2981316C2981316C2981316C2926
:1006B80081316C2981316C298131132981316C296F
:1006C80081316C2981316C2981316C2981316C2906
:1006D80081316C2981316C2981316C2981316C29F6
:1006E80081316C2981316C2981316C2981316C29E6
:1006F80081316C2981316C2981316C2981316C29D6
:1007080081316C2981316C2981316C2981316C29C5
:1007180081316C2981316C2981316C2981316C29B5
:1007280081316C2981316C2981316C2981316C29A5
:1007380081316C2981316C2981316C2981316C2995
:1007480081316C2981314A2981316C2981314C29C7
:1007580081316C2981316C2981316C2981310229DF
:1007680081316C2981316C2981310C298031FC2837
:1007780081310F2981312D298131442981314E2937
:100788008131472981316C2981316C2981316C296A
:1007980081316C2981316C2981316C298031F328B0
:1007A8008031FF28813107298131222981316C2943
:1007B800813115298031F82881316C29813123292B
:1007C800503449344334313436344634313439348E
:1007D80033343834203477346F3472346B346934BA
:1007E8006E346734213421342034543452344B3439
:1007F800303430343A3420340034443475346D3471
:10080800703469346E346734203464346134743439
:1008180061342E342E340D340A34003454346534A3
:1008280073347434203446346C346F347034703418
:1008380079342034303431340D340A3400342C34D3
:1008480000346400013080010131FE020030FF3BBA
:0A0858007F087E0403190034262CEB
:020000040001F9
:04000E00AFC9FFFF78
:00000001FF
